:100000000C942E010C945F010C945F010C945F0121
:100010000C945F010C945F010C945F010C945F01E0
:100020000C945F010C945F010C945F010C945F01D0
:100030000C945F010C945F010C945F010C945F01C0
:100040000C945F010C945F010C945F010C945F01B0
:100050000C945F010C945F010C945F010C945C069E
:100060000C945F010C9426060C94FC050C945F0123
:100070000C945F010C945F010C945F010C945F0180
:100080000C945F010C945F010C945F010C945F0170
:100090000C945F010C945F010C945F010C945F0160
:1000A0000C945F010C945F010C945F010C945F0150
:1000B0000C945F010C945F010C945F010C945F0140
:1000C0000C945F010C945F010C945F010C945F0130
:1000D0000C945F010C945F010C945F010C945F0120
:1000E0000C945F010C94E8020C94AA030C94030393
:1000F0000C94A6060C94FB020C9417030C948E012E
:100100000C94F6050C94B1010C9409030C941103A2
:100110000C94F1020C94F7010C94C5020C94440267
:100120000C94BF010C9461010C94DC020C94E0026D
:100130000C94A9030C94F5020C941B030C94E40298
:100140000C940D030C94EB020C94FF020C94CA0265
:100150000C949D0100002100240027002A002D009E
:100160003000330001010000040107010A01000012
:100170002200250028002B002E003100340002014F
:100180000000050108010B01050505050705080824
:100190000808020202020A0A080804040404010111
:1001A0000101010101010303030303030303040726
:1001B00007070C0C0C0C0C0C0C0C020202020606BD
:1001C0000606060606060B0B0B0B0B0B0B0B0102B0
:1001D0001020200808102040102040800201020159
:1001E0000804020101020408102040808040201011
:1001F000080402018004020180402010080402016A
:1002000008040201010204081020408001020408D1
:100210001020408000000A0B02090C0D0E08070395
:1002200004010000000000000000000000000000C9
:1002300000000000000000000000000000000000BE
:10024000121110000000000000000000000000007B
:1002500000000000000000000000A60611241FBEE0
:10026000CFEFD1E2DEBFCDBF00E00CBF12E0A0E0D7
:10027000B2E0E8E1F1E100E00BBF02C007900D92AF
:10028000AA34B107D9F723E0AAE4B2E001C01D9275
:10029000AC30B207E1F711E0CEE2D1E000E006C0F9
:1002A00021970109802FFE010E946E08CD32D107EF
:1002B00080E00807A9F70E94F0060C948A080C94C5
:1002C0000000AF92BF92CF92DF92EF92FF920F9316
:1002D0001F93CF93DF936C017B018B01040F151FDC
:1002E000EB015E01AE18BF08C017D10759F0699144
:1002F000D601ED91FC910190F081E02DC601199598
:10030000892B79F7C501DF91CF911F910F91FF9054
:10031000EF90DF90CF90BF90AF900895FC01538D88
:10032000448D252F30E0842F90E0821B930B5417CF
:1003300010F0CF96089501970895FC01918D828D5C
:10034000981761F0A28DAE0FBF2FB11D5D968C91F5
:10035000928D9F5F9F73928F90E008958FEF9FEF34
:100360000895FC01918D828D981731F0828DE80FF0
:10037000F11D858D90E008958FEF9FEF0895FC01AA
:10038000918D228D892F90E0805C9F4F821B910977
:100390008F739927089587E592E00E94BF0121E0BD
:1003A000892B09F420E0822F0895FC01A48DA80F69
:1003B000B92FB11DA35ABF4F2C91848D90E00196A7
:1003C0008F739927848FA689B7892C93A089B189C7
:1003D0008C91837080648C93938D848D981306C068
:1003E0000288F389E02D80818F7D80830895EF92CC
:1003F000FF920F931F93CF93DF93EC0181E0888FDF
:100400009B8D8C8D98131AC0E889F989808185FFAE
:1004100015C09FB7F894EE89FF896083E889F98950
:1004200080818370806480839FBF81E090E0DF9152
:10043000CF911F910F91FF90EF900895F62E0B8DA5
:1004400010E00F5F1F4F0F731127E02E8C8D8E1160
:100450000CC00FB607FCFACFE889F989808185FFC7
:10046000F5CFCE010E94D501F1CFEB8DEC0FFD2F22
:10047000F11DE35AFF4FF0829FB7F8940B8FEA8982
:10048000FB8980818062CFCFCF93DF93EC01888D91
:100490008823B9F0AA89BB89E889F9898C9185FDFF
:1004A00003C0808186FD0DC00FB607FCF7CF8C918D
:1004B00085FFF2CF808185FFEDCFCE010E94D5016F
:1004C000E9CFDF91CF91089580E090E0892B29F06A
:1004D0000E94CB0181110E94000080E090E0892BF6
:1004E00049F080E090E0892B29F00E940000811102
:1004F0000E94000080E090E0892B49F080E090E0CD
:10050000892B29F00E94000081110E94000080E0E8
:1005100090E0892B49F080E090E0892B29F00E943F
:10052000000081110C9400000895282F30E0F9019B
:10053000EC5EFD4F9491F901E253FE4F4491285730
:100540003E4FF9012491222309F435C0992311F17A
:1005500091509231F8F4E92FF0E08827ED54FD4FE7
:100560008F4F0C946E08E402E802C502DC02E00240
:10057000CA02EB02F102F502FB02FF0203030903C8
:100580000D03CA02110317031B03809180008F77AC
:1005900080938000E22FF0E0EE0FFF1FE259FE4F44
:1005A000A591B4918FB7F894EC91611148C0409532
:1005B0004E234C938FBF0895809180008F7DE8CFAC
:1005C00080918000877FE4CF84B58F7784BDE2CFB0
:1005D00084B58F7DFBCF8091B0008F778093B00082
:1005E000D9CF8091B0008F7DF9CF809190008F7727
:1005F00080939000CFCF809190008F7DF9CF809134
:100600009000877FF5CF8091A0008F778093A00026
:10061000C1CF8091A0008F7DF9CF8091A000877F0E
:10062000F5CF809120018F7780932001B3CF809107
:1006300020018F7DF9CF80912001877FF5CF4E2B50
:10064000B8CFCF93DF9390E0FC01E253FE4F2491AB
:1006500088579E4FFC0184918823D1F090E0880F49
:10066000991FFC01EC5AFE4FA591B491FC01E2598F
:10067000FE4FC591D49161110EC09FB7F8948C9133
:10068000E22FE0958E238C932881E223E8839FBF9D
:10069000DF91CF9108958FB7F894EC91E22BEC9312
:1006A0008FBFF6CF3FB7F8948091510290915202DC
:1006B000A0915302B091540226B5A89B05C02F3FCC
:1006C00019F00196A11DB11D3FBFBA2FA92F982F78
:1006D0008827BC01CD01620F711D811D911D42E073
:1006E000660F771F881F991F4A95D1F708958F923B
:1006F0009F92AF92BF92CF92DF92EF92FF924B0107
:100700005C010E9452036B017C010E9452036C1930
:100710007D098E099F09683E734081059105A8F304
:1007200021E0821A9108A108B10888EEC80E83E082
:10073000D81EE11CF11C81149104A104B10429F715
:10074000FF90EF90DF90CF90BF90AF909F908F90F1
:100750000895089590E080E008958F929F92AF925F
:10076000BF92EF92FF920F931F93CF93DF93CDB77A
:10077000DEB7A1970FB6F894DEBF0FBECDBF7C01E8
:10078000FA01CB0119A2223008F42AE08E010F5D94
:100790001F4F822E912CB12CA12CBF01A5019401D9
:1007A0000E944C08F901CA016A3074F5605DD801F5
:1007B0006E938D01232B242B252B79F790E080E07D
:1007C000109789F0FD0101900020E9F73197AF0102
:1007D0004A1B5B0BD701ED91FC910280F381E02D68
:1007E000B801C7011995A1960FB6F894DEBF0FBEE8
:1007F000CDBFDF91CF911F910F91FF90EF90BF90F0
:10080000AF909F908F900895695CD1CFFC010190CB
:100810000020E9F73197AF01481B590BBC0184EF69
:1008200092E00C946101CF92DF92EF92FF920F93CE
:100830001F93CF93DF936B01770FEE08FF08F7FE4E
:100840001FC0EC01E881F9810190F081E02D6DE29B
:1008500019958C0144275527BA014C195D096E0979
:100860007F092AE0CE010E94AD03800F911FDF9126
:10087000CF911F910F91FF90EF90DF90CF9008954F
:100880002AE0B701A601DF91CF911F910F91FF9050
:10089000EF90DF90CF900C94AD0380917B00877F29
:1008A00080937B0080E480937C0080917A00806458
:1008B00080937A0080917A0086FDFCCF8091780049
:1008C00060917900762F682F70934B0260934A02F3
:1008D00087E592E00E94130464EF71E080E090E00D
:1008E0000E94770380914A0290914B0264E670E087
:1008F0000E9438086A307105FCF4709356026093C8
:100900005502809155029091560218161906CCF4A2
:1009100061E08DE00E94950268EC70E080E090E07C
:100920000E94770360E08DE00E94950268EC70E021
:1009300080E090E00C9477031092560210925502DA
:10094000E0CF0895CF93DF93EC0160E08E810E94A9
:10095000950261E08E810E94950260E08E810E9486
:1009600095028BE891E00197F1F7DF91CF9108951F
:10097000CF92DF92EF92FF920F931F93CF93DF936B
:100980006C017C0187E0E80EF11CD0E0C0E0062F8E
:1009900010E0B8010C2E02C0759567950A94E2F735
:1009A0006170F70181917F010E9495022196C43008
:1009B000D10579F7C601DF91CF911F910F91FF907B
:1009C000EF90DF90CF900C94A204CF92DF92EF9241
:1009D000FF920F931F93CF93DF93EC01F62E642FBA
:1009E0008C810E9495028D818F3F19F060E00E94FA
:1009F00095020F2D10E08F8584FF25C06E0187E0E2
:100A0000C80ED11CF12CE12CB8010E2C02C075953A
:100A100067950A94E2F76170F60181916F010E9477
:100A20009502FFEFEF1AFF0A88E0E816F10461F77C
:100A3000CE01DF91CF911F910F91FF90EF90DF904A
:100A4000CF900C94A204B80184E0759567958A95BF
:100A5000E1F7CE010E94B8046F2DCE01DF91CF9156
:100A60001F910F91FF90EF90DF90CF900C94B804FE
:100A700040E0682F84EF92E00C94E50481E00E944E
:100A800038058BE39FE10197F1F70895CF93DF934A
:100A9000823029F49091030398609093030380932C
:100AA00007031092080380E48093090380E1809398
:100AB0000A0380E580930B0361E08091F8020E94B5
:100AC00021038091F9028F3F19F061E00E94210318
:100AD00061E08091FA020E942103C4EFD2E09E01FE
:100AE000245F32408091030384FD0BC084E090E0DA
:100AF00021962817390744F461E08E810E94210372
:100B0000EECF88E090E0F4CF8BE39DE00197F1F722
:100B100060E08091F8020E94950260E08091FA0204
:100B20000E9495028091F9028F3F19F060E00E94C7
:100B300095028091030384FD34C063E084EF92E06A
:100B40000E94B804CBE4D6E4CE010197F1F763E04C
:100B500084EF92E00E94B8042197F1F763E084EFFC
:100B600092E00E94B80483E592E00197F1F762E019
:100B700084EF92E00E94B8048091030380620E9497
:100B8000380584E0809304038CE00E9438050E94BD
:100B90003E0582E08093050386E0DF91CF910C94BF
:100BA000380580620E9438058BE496E40197F1F7DE
:100BB0008091030380620E94380583E592E00197EB
:100BC000F1F78091030380620E943805D5CF9091A0
:100BD0000703691710F06FEF690FE62FF0E0EC5094
:100BE000FD4F9489890F80680C94380541E00E947C
:100BF000E50481E090E008951F920F920FB60F92E6
:100C000011240BB60F922F933F934F935F936F93E3
:100C10007F938F939F93AF93BF93EF93FF9387E55A
:100C200092E00E94D501FF91EF91BF91AF919F910A
:100C30008F917F916F915F914F913F912F910F9085
:100C40000BBE0F900FBE0F901F9018951F920F9222
:100C50000FB60F9211240BB60F922F938F939F9381
:100C6000EF93FF93E0916702F09168028081E09139
:100C70006D02F0916E0282FD1DC090818091700224
:100C80008F5F8F7320917102821741F0E0917002A3
:100C9000F0E0E95AFD4F958F80937002FF91EF913C
:100CA0009F918F912F910F900BBE0F900FBE0F90C1
:100CB0001F9018958081F2CF1F920F920FB60F925E
:100CC00011242F933F938F939F93AF93BF93809162
:100CD0004D0290914E02A0914F02B091500230917E
:100CE0004C0223E0230F2D3758F50196A11DB11DAD
:100CF00020934C0280934D0290934E02A0934F029A
:100D0000B09350028091510290915202A0915302EF
:100D1000B09154020196A11DB11D80935102909390
:100D20005202A0935302B0935402BF91AF919F918E
:100D30008F913F912F910F900FBE0F901F9018959C
:100D400026E8230F0296A11DB11DD2CFE7E5F2E000
:100D50001382128288EE93E0A0E0B0E08483958352
:100D6000A683B7838CE092E09183808385EC90E04A
:100D70009587848784EC90E09787868780EC90E065
:100D8000918B808B81EC90E0938B828B82EC90E056
:100D9000958B848B86EC90E0978B868B118E128ED0
:100DA000138E148EE4EFF2E0138212828EE192E051
:100DB0009183808382E084838FEF858383E08683C1
:100DC00084E0878385E0808786E0818787E082876B
:100DD0001386148615861686178681E00C944605C0
:100DE000789484B5826084BD84B5816084BD85B506
:100DF000826085BD85B5816085BD80916E00816012
:100E000080936E00109281008091810082608093B7
:100E100081008091810081608093810080918000B9
:100E20008160809380008091B10084608093B100E4
:100E30008091B00081608093B000809191008260C9
:100E400080939100809191008160809391008091C6
:100E500090008160809390008091A10082608093D7
:100E6000A1008091A10081608093A1008091A000E9
:100E700081608093A0008091210182608093210194
:100E80008091210181608093210180912001816006
:100E90008093200180917A00846080937A00809111
:100EA0007A00826080937A0080917A0081608093DA
:100EB0007A0080917A00806880937A001092C10055
:100EC000E0916702F091680282E08083E091630222
:100ED000F09164021082E0916502F09166028FEC5D
:100EE000808310926F02E0916B02F0916C0286E0B9
:100EF0008083E0916902F0916A0280818061808341
:100F0000E0916902F0916A02808188608083E091BB
:100F10006902F0916A02808180688083E0916902B1
:100F2000F0916A0280818F7D808360E086E30E9479
:100F3000210361E088E00E94210361E089E00E94D2
:100F4000210361E08DE00E94210388E40E943805BE
:100F5000C0E0D2E008E012E0699184EF92E00E94E4
:100F6000F6050C171D07C1F782E00E9446050E9496
:100F70003E0560E084E00E94E70586E292E00E9480
:100F8000060461E084E00E94E70580E392E00E94AD
:100F9000060460ED77E080E090E00E9477030E9415
:100FA0003E0560E084E00E94E7058AE392E00E944B
:100FB000060461E084EF92E00E94F60560E08AE0BA
:100FC0000E94E7058DE392E00E94060461E084EF51
:100FD00092E00E94F60561E088E00E94950260E0E0
:100FE00089E00E94950264EF71E080E090E00E9449
:100FF00077030E944D0461E083E00E94E705609161
:1010000055027091560285E492E01616170634F4E4
:1010100084EF92E00E94130480E492E00E940604B0
:1010200060E088E00E94950261E089E00E949502FC
:1010300064EF71E080E090E00E9477030E944D042D
:1010400061E089E00E94E7056091550270915602C7
:1010500085E492E01616170634F484EF92E00E94BD
:10106000130480E492E00E9406040E94640299CF77
:1010700097FB072E16F4009407D077FD09D00E9445
:10108000760807FC05D03EF4909581959F4F089512
:10109000709561957F4F0895A1E21A2EAA1BBB1B84
:1010A000FD010DC0AA1FBB1FEE1FFF1FA217B30734
:1010B000E407F50720F0A21BB30BE40BF50B661F4A
:1010C000771F881F991F1A9469F76095709580950E
:1010D00090959B01AC01BD01CF010895EE0FFF1F5C
:1010E000881F8BBF0790F691E02D1994AA1BBB1B9C
:1010F00051E107C0AA1FBB1FA617B70710F0A61B18
:10110000B70B881F991F5A95A9F780959095BC0138
:08111000CD010895F894FFCF12
:10111800000404041F0E040000000000F701610130
:101128008E014402BF019D01B10100000000F605D7
:101138006101AA03A90357696C64204C69666500BC
:10114800537269204C616E6B61004C31004C320067
:0A1158004B4D202000204E462000E1
:00000001FF
